{
  "contractName": "HookEmCoin",
  "abi": [
    {
      "inputs": [],
      "stateMutability": "nonpayable",
      "type": "constructor"
    },
    {
      "inputs": [],
      "name": "admin",
      "outputs": [
        {
          "internalType": "address",
          "name": "",
          "type": "address"
        }
      ],
      "stateMutability": "view",
      "type": "function"
    },
    {
      "inputs": [],
      "name": "clubLeader",
      "outputs": [
        {
          "internalType": "string",
          "name": "",
          "type": "string"
        }
      ],
      "stateMutability": "view",
      "type": "function"
    },
    {
      "inputs": [],
      "name": "skipClass",
      "outputs": [],
      "stateMutability": "nonpayable",
      "type": "function"
    }
  ],
  "bytecode": "0x60806040526040518060400160405280600481526020017f6f77656e000000000000000000000000000000000000000000000000000000008152506001908051906020019061004f9291906100a2565b5034801561005c57600080fd5b50336000806101000a81548173ffffffffffffffffffffffffffffffffffffffff021916908373ffffffffffffffffffffffffffffffffffffffff1602179055506101a6565b8280546100ae90610174565b90600052602060002090601f0160209004810192826100d05760008555610117565b82601f106100e957805160ff1916838001178555610117565b82800160010185558215610117579182015b828111156101165782518255916020019190600101906100fb565b5b5090506101249190610128565b5090565b5b80821115610141576000816000905550600101610129565b5090565b7f4e487b7100000000000000000000000000000000000000000000000000000000600052602260045260246000fd5b6000600282049050600182168061018c57607f821691505b602082108114156101a05761019f610145565b5b50919050565b6102ee806101b56000396000f3fe608060405234801561001057600080fd5b50600436106100415760003560e01c806323e0938c14610046578063b7f1477614610050578063f851a4401461006e575b600080fd5b61004e61008c565b005b61005861008e565b60405161006591906101d9565b60405180910390f35b61007661011c565b604051610083919061023c565b60405180910390f35b565b6001805461009b90610286565b80601f01602080910402602001604051908101604052809291908181526020018280546100c790610286565b80156101145780601f106100e957610100808354040283529160200191610114565b820191906000526020600020905b8154815290600101906020018083116100f757829003601f168201915b505050505081565b60008054906101000a900473ffffffffffffffffffffffffffffffffffffffff1681565b600081519050919050565b600082825260208201905092915050565b60005b8381101561017a57808201518184015260208101905061015f565b83811115610189576000848401525b50505050565b6000601f19601f8301169050919050565b60006101ab82610140565b6101b5818561014b565b93506101c581856020860161015c565b6101ce8161018f565b840191505092915050565b600060208201905081810360008301526101f381846101a0565b905092915050565b600073ffffffffffffffffffffffffffffffffffffffff82169050919050565b6000610226826101fb565b9050919050565b6102368161021b565b82525050565b6000602082019050610251600083018461022d565b92915050565b7f4e487b7100000000000000000000000000000000000000000000000000000000600052602260045260246000fd5b6000600282049050600182168061029e57607f821691505b602082108114156102b2576102b1610257565b5b5091905056fea264697066735822122078dcbcd4b07f56aec945efda44afb2ee0ea27e271708b072b82d1bf258fc57d064736f6c63430008090033",
  "immutableReferences": {},
  "source": "pragma solidity >=0.4.22 <0.9.0;\nimport \"@openzeppelin/contracts/token/ERC20/ERC20.sol\";\n\n// Every single computation literally costs you money (gas fees) \n\ncontract HookEmCoin {\n    // State variables\n    address public admin;\n    string public clubLeader = \"owen\";\n\n\n    constructor() {\n        admin = msg.sender;\n    }\n\n    function skipClass() public {\n\n    }\n}",
  "sourcePath": "/Users/mayankdaruka/Documents/Blockchain/Smart Contracts/contracts/HookEmCoin.sol",
  "compiler": {
    "name": "solc",
    "version": "0.8.9+commit.e5eed63a.Emscripten.clang"
  },
  "schemaVersion": "3.4.3",
  "updatedAt": "2021-10-21T23:45:49.137Z",
  "devdoc": {
    "kind": "dev",
    "methods": {},
    "version": 1
  },
  "userdoc": {
    "kind": "user",
    "methods": {},
    "version": 1
  }
}